:020000040800F2
:1000000000000520155800080D5600081B56000872
:1000100021560008275600082D5600080000000051
:10002000000000000000000000000000335600083F
:1000300041560008000000004F5600085D560008B9
:10004000655800086558000865580008655800089C
:10005000655800086558000865580008655800088C
:10006000655800086558000865580008655800087C
:10007000655800086558000865580008655800086C
:10008000655800086558000865580008655800085C
:10009000655800086558000865580008655800084C
:1000A000655800086558000865580008655800083C
:1000B000655800086558000865580008655800082C
:1000C000655800086558000865580008655800081C
:1000D000655800086558000865580008655800080C
:1000E00065580008655800086558000865580008FC
:1000F00065580008655800086558000865580008EC
:1001000065580008655800086558000865580008DB
:1001100065580008655800086558000865580008CB
:1001200065580008655800086558000865580008BB
:1001300065580008655800086558000865580008AB
:10014000655800086558000865580008655800089B
:10015000655800086558000865580008655800088B
:10016000655800086558000865580008655800087B
:100170006558000865580008655800080000000030
:10018000655800086558000865580008655800085B
:10019000655800086558000865580008655800084B
:1001A000655800086558000865580008655800083B
:1001B000655800086558000865580008655800082B
:0801C0006558000865580008AD
:1001D00010B5054C237833B9044B13B10448AFF381
:1001E00000800123237010BDDC010020000000000E
:1001F0004879000808B5034B1BB103490348AFF326
:10020000008008BD00000000E001002048790008DF
:10021000034613F8012B002AFBD1181A0138704746
:1002200001F0FF01102A2BDB10F0070F08D010F8A7
:10023000013B013A8B422DD010F0070F42B3F6D1AB
:10024000F0B441EA012141EA014122F007047FF0C4
:1002500000070023F0E80256083C85EA010586EA1B
:10026000010685FA47F5A3FA87F586FA47F6A5FA57
:1002700087F68EB9EED1F0BC01F0FF0102F0070263
:1002800032B110F8013B013A83EA010313B1F8D10E
:100290000020704701387047002D06BF35460338EF
:1002A000073815F0010F07D1013015F4807F02BF28
:1002B000013015F4C03F0130F0BC0138704700BF79
:1002C00081F0004102E000BF83F0004330B54FEA07
:1002D00041044FEA430594EA050F08BF90EA020F74
:1002E0001FBF54EA000C55EA020C7FEA645C7FEA07
:1002F000655C00F0E2804FEA5454D4EB5555B8BF2A
:100300006D420CDD2C4480EA020281EA030382EA9A
:10031000000083EA010180EA020281EA0303362D2C
:1003200088BF30BD11F0004F4FEA01314FF4801CFF
:100330004CEA113102D0404261EB410113F0004F11
:100340004FEA03334CEA133302D0524263EB4303C8
:1003500094EA050F00F0A780A4F10104D5F1200E66
:100360000DDB02FA0EFC22FA05F2801841F10001C1
:1003700003FA0EF2801843FA05F359410EE0A5F195
:1003800020050EF1200E012A03FA0EFC28BF4CF0C6
:10039000020C43FA05F3C01851EBE37101F000457C
:1003A00007D54FF0000EDCF1000C7EEB00006EEB89
:1003B0000101B1F5801F1BD3B1F5001F0CD3490813
:1003C0005FEA30004FEA3C0C04F101044FEA44526A
:1003D00012F5800F80F09A80BCF1004F08BF5FEAF1
:1003E000500C50F1000041EB045141EA050130BDD1
:1003F0005FEA4C0C404141EB010111F4801FA4F174
:100400000104E9D191F0000F04BF01460020B1FAC8
:1004100081F308BF2033A3F10B03B3F120020CDA00
:100420000C3208DD02F1140CC2F10C0201FA0CF0DE
:1004300021FA02F10CE002F11402D8BFC2F1200C43
:1004400001FA02F120FA0CFCDCBF41EA0C019040F9
:10045000E41AA2BF01EB0451294330BD6FEA040442
:100460001F3C1CDA0C340EDC04F11404C4F120022D
:1004700020FA04F001FA02F340EA030021FA04F33F
:1004800045EA030130BDC4F10C04C4F1200220FA96
:1004900002F001FA04F340EA0300294630BD21FAD4
:1004A00004F0294630BD94F0000F83F4801306BF9A
:1004B00081F480110134013D4EE77FEA645C18BF8E
:1004C0007FEA655C29D094EA050F08BF90EA020F25
:1004D00005D054EA000C04BF1946104630BD91EA1D
:1004E000030F1EBF0021002030BD5FEA545C05D120
:1004F0004000494128BF41F0004130BD14F580045F
:100500003CBF01F5801130BD01F0004545F0FE41D2
:1005100041F470014FF0000030BD7FEA645C1ABF07
:10052000194610467FEA655C1CBF0B46024650EA3E
:10053000013406BF52EA033591EA030F41F400216A
:1005400030BD00BF90F0000F04BF0021704730B5F0
:100550004FF4806404F132044FF000054FF00001C5
:1005600050E700BF90F0000F04BF0021704730B586
:100570004FF4806404F1320410F0004548BF40425B
:100580004FF000013EE700BF42004FEAE2014FEAB0
:1005900031014FEA02701FBF12F07F4393F07F4F8B
:1005A00081F06051704732F07F4208BF704793F08E
:1005B0007F4F04BF41F40021704730B54FF46074A1
:1005C00001F0004521F000411CE700BF50EA0102A4
:1005D00008BF704730B54FF000050AE050EA01024D
:1005E00008BF704730B511F0004502D5404261EBBD
:1005F00041014FF4806404F132045FEA915C3FF4FE
:10060000D8AE4FF003025FEADC0C18BF03325FEA9A
:10061000DC0C18BF033202EBDC02C2F1200300FA4B
:1006200003FC20FA02F001FA03FE40EA0E0021FA70
:1006300002F11444BDE600BF70B54FF0FF0C4CF45E
:10064000E06C1CEA11541DBF1CEA135594EA0C0F10
:1006500095EA0C0F00F0DEF82C4481EA030621EA4B
:100660004C5123EA4C5350EA013518BF52EA033586
:1006700041F4801143F4801338D0A0FB02CE4FF038
:100680000005E1FB02E506F00042E0FB03E54FF068
:100690000006E1FB03569CF0000F18BF4EF0010E60
:1006A000A4F1FF04B6F5007F64F5407404D25FEA5C
:1006B0004E0E6D4146EB060642EAC62141EA55510F
:1006C0004FEAC52040EA5E504FEACE2EB4F1FD0C51
:1006D00088BFBCF5E06F1ED8BEF1004F08BF5FEACF
:1006E000500E50F1000041EB045170BD06F0004681
:1006F00046EA010140EA020081EA0301B4EB5C042E
:10070000C2BFD4EB0C0541EA045170BD41F4801125
:100710004FF0000E013C00F3AB8014F1360FDEBF4A
:10072000002001F0004170BDC4F10004203C35DA26
:100730000C341BDC04F11404C4F1200500FA05F3A9
:1007400020FA04F001FA05F240EA020001F000424A
:1007500021F0004110EBD37021FA04F642EB0601C0
:100760005EEA430E08BF20EAD37070BDC4F10C04EA
:10077000C4F1200500FA04F320FA05F001FA04F2AE
:1007800040EA020001F0004110EBD37041F100019A
:100790005EEA430E08BF20EAD37070BDC4F12005A5
:1007A00000FA05F24EEA020E20FA04F301FA05F20D
:1007B00043EA020321FA04F001F0004121FA04F2B5
:1007C00020EA020000EBD3705EEA430E08BF20EA85
:1007D000D37070BD94F0000F0FD101F000464000BF
:1007E00041EB010111F4801F08BF013CF7D041EA41
:1007F000060195F0000F18BF704703F00046520045
:1008000043EB030313F4801F08BF013DF7D043EA15
:100810000603704794EA0C0F0CEA135518BF95EACB
:100820000C0F0CD050EA410618BF52EA4306D1D152
:1008300081EA030101F000414FF0000070BD50EA71
:10084000410606BF1046194652EA430619D094EAFB
:100850000C0F02D150EA013613D195EA0C0F05D1E5
:1008600052EA03361CBF104619460AD181EA030139
:1008700001F0004141F0FE4141F470014FF00000F1
:1008800070BD41F0FE4141F4780170BD70B54FF08C
:10089000FF0C4CF4E06C1CEA11541DBF1CEA13550C
:1008A00094EA0C0F95EA0C0F00F0A7F8A4EB0504EE
:1008B00081EA030E52EA03354FEA013100F08880E5
:1008C0004FEA03334FF0805545EA131343EA1263AE
:1008D0004FEA022245EA111545EA10654FEA002663
:1008E0000EF000419D4208BF964244F1FD0404F51C
:1008F000407402D25B084FEA3202B61A65EB030578
:100900005B084FEA32024FF480104FF4002CB6EB34
:10091000020E75EB030E22BFB61A754640EA0C00B4
:100920005B084FEA3202B6EB020E75EB030E22BFF4
:10093000B61A754640EA5C005B084FEA3202B6EB35
:10094000020E75EB030E22BFB61A754640EA9C00F4
:100950005B084FEA3202B6EB020E75EB030E22BFC4
:10096000B61A754640EADC0055EA060E18D04FEA82
:10097000051545EA16754FEA06164FEAC30343EA22
:1009800052734FEAC2025FEA1C1CC0D111F4801FEF
:100990000BD141EA00014FF000004FF0004CB6E7E8
:1009A00011F4801F04BF01430020B4F1FD0C88BF87
:1009B000BCF5E06F3FF6AFAEB5EB030C04BFB6EB92
:1009C000020C5FEA500C50F1000041EB045170BD85
:1009D0000EF0004E4EEA113114EB5C04C2BFD4EBB2
:1009E0000C0541EA045170BD41F480114FF0000E36
:1009F000013C90E645EA060E8DE60CEA135594EAB2
:100A00000C0F08BF95EA0C0F3FF43BAF94EA0C0FB4
:100A10000AD150EA01347FF434AF95EA0C0F7FF429
:100A200025AF104619462CE795EA0C0F06D152EA7D
:100A300003353FF4FDAE1046194622E750EA410661
:100A400018BF52EA43067FF4C5AE50EA41047FF472
:100A50000DAF52EA43057FF4EBAE12E74FF0FF3CD7
:100A600006E000BF4FF0010C02E000BF4FF0010CA8
:100A70004DF804CD4FEA410C7FEA6C5C4FEA430C21
:100A800018BF7FEA6C5C1BD001B050EA410C0CBF70
:100A900052EA430C91EA030F02BF90EA020F0020D2
:100AA000704710F1000F91EA030F58BF994208BF39
:100AB00090422CBFD8176FEAE37040F001007047F6
:100AC0004FEA410C7FEA6C5C02D150EA013C07D14D
:100AD0004FEA430C7FEA6C5CD6D152EA033CD3D098
:100AE0005DF8040B704700BF8446104662468C4692
:100AF0001946634600E000BF01B5FFF7B7FF0028C5
:100B000048BF10F1000F01BD4DF808EDFFF7F4FFED
:100B10000CBF012000205DF808FB00BF4DF808ED78
:100B2000FFF7EAFF34BF012000205DF808FB00BF9B
:100B30004DF808EDFFF7E0FF94BF012000205DF8BD
:100B400008FB00BF4DF808EDFFF7CEFF94BF012072
:100B500000205DF808FB00BF4DF808EDFFF7C4FF6B
:100B600034BF012000205DF808FB00BF4FEA410CB4
:100B70007FEA6C5C02D150EA013C0AD14FEA430C97
:100B80007FEA6C5C02D152EA033C02D14FF00000D4
:100B900070474FF0010070474FEA410212F5001212
:100BA00015D211D56FF47873B3EB625212D94FEAB4
:100BB000C12343F0004343EA505311F0004F23FA9E
:100BC00002F018BF404270474FF00000704750EAF3
:100BD000013005D111F0004008BF6FF000407047B0
:100BE0004FF00000704700BF7BB972B90029BEBF4B
:100BF00000204FF0004106E008BF00281CBF6FF046
:100C000000414FF0FF3000F0BDB9ADF1080C6DE9C7
:100C100004CE002909DB002B1ADB00F04DF8DDF8CB
:100C200004E0DDE9022304B07047404261EB41017A
:100C3000002B1BDB00F040F8DDF804E0DDE90223C7
:100C400004B0404261EB4101524263EB4303704701
:100C5000524263EB430300F02FF8DDF804E0DDE9D6
:100C6000022304B0404261EB41017047524263EB02
:100C7000430300F021F8DDF804E0DDE9022304B0CD
:100C8000524263EB4303704753B94AB9002908BF86
:100C900000281CBF4FF0FF314FF0FF3000F072B959
:100CA000ADF1080C6DE904CE00F006F8DDF804E0C3
:100CB000DDE9022304B070472DE9F047089E0446A1
:100CC0008846002B4BD18A42154667D9B2FA82F288
:100CD0004AB1C2F1200701FA02F320FA07F7954062
:100CE00047EA030894404FEA154E230CB8FBFEF781
:100CF0001FFA85FC0EFB178843EA084307FB0CF13B
:100D0000994209D9EB1807F1FF3080F01B81994215
:100D100040F21881023F2B445B1AA4B2B3FBFEF0F1
:100D20000EFB103344EA034400FB0CFCA44509D934
:100D30002C1900F1FF3380F00781A44540F20481B3
:100D400002382C4440EA0740A4EB0C0400271EB1F3
:100D5000D4400023C6E900433946BDE8F0878B4202
:100D600009D9002E00F0EB800027C6E900013846C3
:100D70003946BDE8F087B3FA83F7002F47D18B429D
:100D800002D3824200F2FA80841A61EB030301204D
:100D90009846002EE0D0C6E90048DDE702B9FFDE44
:100DA000B2FA82F2002A40F08F80491B4FEA154EBA
:100DB0001FFA85F80127B1FBFEFC230C0EFB1C116A
:100DC00043EA014308FB0CF1994207D9EB180CF1F7
:100DD000FF3002D2994200F2CD808446591AA3B264
:100DE000B1FBFEF00EFB101443EA044408FB00F8CC
:100DF000A04507D92C1900F1FF3302D2A04500F21B
:100E0000B6801846A4EB080440EA0C409FE7C7F1FF
:100E1000200CBB4022FA0CFE4EEA030E01FA07F446
:100E200020FA0CF521FA0CF34FEA1E482543B3FBD8
:100E3000F8F92C0C08FB19331FFA8EFA44EA034325
:100E400009FB0AF49C4202FA07F200FA07F10BD9F7
:100E50001EEB030309F1FF3080F087809C4240F2D3
:100E60008480A9F1020973441B1BADB2B3FBF8F0F7
:100E700008FB103345EA034400FB0AFAA24508D9EF
:100E80001EEB040400F1FF336BD2A24569D902388E
:100E9000744440EA0940A0FB0289A4EB0A044C45D3
:100EA000C2464B4654D351D0002E69D0B1EB0A054F
:100EB00064EB030404FA0CFCFD40FC404CEA05051D
:100EC000C6E90054002747E7C2F1200320FA03F7E0
:100ED000954001FA02F021FA03F34FEA154E384328
:100EE000010CB3FBFEF71FFA85F80EFB173341EA3E
:100EF000034107FB08F38B4204FA02F407D969188F
:100F000007F1FF3C2FD28B422DD9023F2944CB1A47
:100F100081B2B3FBFEF00EFB103341EA034100FB4C
:100F200008F38B4207D9691800F1FF3C17D28B42B6
:100F300015D902382944C91A40EA07473BE7374622
:100F4000304609E70746E7E61846FBE64145ABD2DF
:100F5000B8EB020A69EB0E0201381346A4E76046BB
:100F6000E9E7184695E76746D1E781467CE702380E
:100F70002C4447E7ACF1020C2B442FE7384608E736
:100F80003746E9E6704700BF80B500AF032000F0A8
:100F90002DF9002000F006F804F014FB0023184699
:100FA00080BD000080B582B000AF7860124B1A6837
:100FB000124B1B7819464FF47A73B3FBF1F3B2FB73
:100FC000F3F3184600F039F90346002B01D0012352
:100FD0000EE07B680F2B0AD8002279684FF0FF30B3
:100FE00000F00FF9064A7B681360002300E001233C
:100FF00018460837BD4680BD0800002004000020C8
:101000000000002080B400AF064B1B781A46064B48
:101010001B681344044A136000BFBD465DF8047B9F
:10102000704700BF040000200402002080B400AF1D
:10103000034B1B681846BD465DF8047B704700BF34
:101040000402002080B584B000AF7860FFF7EEFFA7
:10105000B8607B68FB60FB68B3F1FF3F05D0094BCC
:101060001B781A46FB681344FB6000BFFFF7DEFFE6
:101070000246BB68D31AFA689A42F7D800BF103705
:10108000BD4680BD0400002080B485B000AF78600C
:101090007B6803F00703FB600B4BDB68BB60BA683F
:1010A0004FF6FF031340BB60FB681A02BB681A438C
:1010B000064B1343BB60044ABB68D36000BF1437C0
:1010C000BD465DF8047B704700ED00E00000FA05C6
:1010D00080B400AF044BDB681B0A03F0070318461B
:1010E000BD465DF8047B704700ED00E080B483B03E
:1010F00000AF03463960FB7197F90730002B0ADB1C
:101100003B68DAB20C4997F907301201D2B20B44AE
:1011100083F800230AE03B68DAB20849FB7903F060
:101120000F03043B1201D2B20B441A7600BF0C37F6
:10113000BD465DF8047B704700E100E000ED00E093
:1011400080B489B000AFF860B9607A60FB6803F0E2
:101150000703FB61FB69C3F10703042B28BF0423CA
:10116000BB61FB690433062B02D9FB69033B00E03A
:1011700000237B614FF0FF32BB6902FA03F3DA43CD
:10118000BB681A407B699A404FF0FF317B6901FAD6
:1011900003F3D9437B680B40134318462437BD46FD
:1011A0005DF8047B7047000080B582B000AF7860C6
:1011B0007B68013BB3F1807F01D301230FE00A4A32
:1011C0007B68013B53600F214FF0FF30FFF78EFF2C
:1011D000054B00229A60044B07221A600023184630
:1011E0000837BD4680BD00BF10E000E080B582B08A
:1011F00000AF78607868FFF747FF00BF0837BD464B
:1012000080BD80B586B000AF0346B9607A60FB73DD
:1012100000237B61FFF75CFF78617A68B9687869C1
:10122000FFF78EFF024697F90F3011461846FFF779
:101230005DFF00BF1837BD4680BD80B582B000AFEE
:1012400078607868FFF7B0FF034618460837BD4658
:1012500080BD000080B489B000AF786039600023A1
:10126000FB6100237B6100233B610023BB61002302
:10127000FB6175E10122FB6902FA03F37B613B68C4
:101280001B687A6913403B613A697B699A4240F076
:1012900064813B685B68022B03D03B685B68122B60
:1012A00023D1FB69DA087B68083253F82230BB612E
:1012B000FB6903F007039B000F2202FA03F3DB43F1
:1012C000BA691340BB613B681A69FB6903F0070305
:1012D0009B0002FA03F3BA691343BB61FB69DA08A6
:1012E0007B680832B96943F822107B681B68BB61D0
:1012F000FB695B00032202FA03F3DB43BA69134084
:10130000BB613B685B6803F00302FB695B0002FAA8
:1013100003F3BA691343BB617B68BA691A603B681F
:101320005B68012B0BD03B685B68022B07D03B68E6
:101330005B68112B03D03B685B68122B30D17B6854
:101340009B68BB61FB695B00032202FA03F3DB438A
:10135000BA691340BB613B68DA68FB695B0002FA5B
:1013600003F3BA691343BB617B68BA699A607B680F
:101370005B68BB610122FB6902FA03F3DB43BA69D4
:101380001340BB613B685B681B0903F00102FB690A
:1013900002FA03F3BA691343BB617B68BA695A6006
:1013A0007B68DB68BB61FB695B00032202FA03F325
:1013B000DB43BA691340BB613B689A68FB695B0019
:1013C00002FA03F3BA691343BB617B68BA69DA6056
:1013D0003B685B6803F08053002B00F0BE80654BD8
:1013E0005B6C644A43F480435364624B5B6C03F46C
:1013F0008043FB60FB68604AFB699B08023352F83C
:101400002330BB61FB6903F003039B000F2202FA48
:1014100003F3DB43BA691340BB617B68574A9342CD
:1014200037D07B68564A934231D07B68554A934205
:101430002BD07B68544A934225D07B68534A934211
:101440001FD07B68524A934219D07B68514A93421D
:1014500013D07B68504A93420DD07B684F4A934229
:1014600007D07B684E4A934201D1092312E00A2338
:1014700010E008230EE007230CE006230AE0052312
:1014800008E0042306E0032304E0022302E0012332
:1014900000E00023FA6902F0030292009340BA6967
:1014A0001343BB613449FB699B080233BA6941F8B5
:1014B00023203C4B1B68BB613B69DB43BA6913408B
:1014C000BB613B685B6803F48033002B03D0BA69CF
:1014D0003B691343BB61334ABB691360314B5B68A3
:1014E000BB613B69DB43BA691340BB613B685B6826
:1014F00003F40033002B03D0BA693B691343BB618B
:10150000284ABB695360274B9B68BB613B69DB433F
:10151000BA691340BB613B685B6803F48013002B1E
:1015200003D0BA693B691343BB611E4ABB69936030
:101530001C4BDB68BB613B69DB43BA691340BB6191
:101540003B685B6803F40013002B03D0BA693B6966
:101550001343BB61134ABB69D360FB690133FB6171
:10156000FB690F2B7FF686AE00BF2437BD465DF8C2
:10157000047B704700380240003801400000024000
:101580000004024000080240000C0240001002402B
:101590000014024000180240001C024000200240DB
:1015A00000240240003C014080B483B000AF78606A
:1015B0000B467B8013467B707B78002B03D07A88A8
:1015C0007B689A6103E07B881A047B689A6100BF9C
:1015D0000C37BD465DF8047B7047000080B400AF57
:1015E000054B1B68044A43F48073136000BFBD467B
:1015F0005DF8047B704700BF0070004080B586B086
:1016000000AF78600023FB757B68002B01D10123BC
:101610005CE27B681B6803F00103002B00F087800D
:10162000964B9B6803F00C03042B0CD0934B9B68E8
:1016300003F00C03082B12D1904B5B6803F480037A
:10164000B3F5800F0BD18D4B1B6803F40033002BD7
:101650006CD07B685B68002B68D1012336E27B6825
:101660005B68B3F5803F06D1844B1B68834A43F423
:10167000803313602EE07B685B68002B0CD17F4BBE
:101680001B687E4A23F4803313607C4B1B687B4AC3
:1016900023F4802313601DE07B685B68B3F5A02F03
:1016A0000CD1764B1B68754A43F480231360734B4F
:1016B0001B68724A43F4803313600BE06F4B1B6866
:1016C0006E4A23F4803313606C4B1B686B4A23F41F
:1016D000802313607B685B68002B13D0FFF7A6FCA8
:1016E000386108E0FFF7A2FC02463B69D31A642B7D
:1016F00001D90323EAE1614B1B6803F40033002B9B
:10170000F0D014E0FFF792FC386108E0FFF78EFCA0
:1017100002463B69D31A642B01D90323D6E1574B08
:101720001B6803F40033002BF0D100E000BF7B689E
:101730001B6803F00203002B69D0504B9B6803F039
:101740000C03002B0BD04D4B9B6803F00C03082BB4
:101750001CD14A4B5B6803F48003002B16D1474B26
:101760001B6803F00203002B05D07B68DB68012BAC
:1017700001D00123AAE1414B1B6823F0F8027B68EA
:101780001B69DB003D4913430B6040E07B68DB686D
:10179000002B23D0394B1B68384A43F001031360F8
:1017A000FFF744FC386108E0FFF740FC02463B6964
:1017B000D31A022B01D9032388E1304B1B6803F0B5
:1017C0000203002BF0D02D4B1B6823F0F8027B683E
:1017D0001B69DB00294913430B6018E0274B1B688A
:1017E000264A23F001031360FFF720FC386108E06C
:1017F000FFF71CFC02463B69D31A022B01D90323D5
:1018000064E11E4B1B6803F00203002BF0D17B68E0
:101810001B6803F00803002B38D07B685B69002B42
:1018200019D0164B5B6F154A43F001035367FFF75E
:10183000FDFB386108E0FFF7F9FB02463B69D31A6C
:10184000022B01D9032341E10C4B5B6F03F0020330
:10185000002BF0D01AE0094B5B6F084A23F001031C
:101860005367FFF7E3FB38610AE0FFF7DFFB02464F
:101870003B69D31A022B03D9032327E10038024026
:10188000944B5B6F03F00203002BEED17B681B6867
:1018900003F00403002B00F0A4808E4B1B6C03F0BC
:1018A0008053002B0DD18B4B1B6C8A4A43F0805325
:1018B0001364884B1B6C03F08053FB60FB680123AF
:1018C000FB75854B1B6803F48073002B18D1824B8A
:1018D0001B68814A43F480731360FFF7A7FB3861EC
:1018E00008E0FFF7A3FB02463B69D31A642B01D93A
:1018F0000323EBE0784B1B6803F48073002BF0D0DC
:101900007B689B68012B06D1724B1B6F714A43F0B9
:10191000010313672DE07B689B68002B0CD16D4B96
:101920001B6F6C4A23F0010313676A4B1B6F694AF4
:1019300023F0040313671CE07B689B68052B0CD124
:10194000644B1B6F634A43F004031367614B1B6FC7
:10195000604A43F0010313670BE05E4B1B6F5D4A67
:1019600023F0010313675B4B1B6F5A4A23F00403F8
:1019700013677B689B68002B15D0FFF757FB386116
:101980000AE0FFF753FB02463B69D31A41F2883263
:10199000934201D9032399E04E4B1B6F03F00203DE
:1019A000002BEED014E0FFF741FB38610AE0FFF7AF
:1019B0003DFB02463B69D31A41F28832934201D97A
:1019C000032383E0434B1B6F03F00203002BEED194
:1019D000FB7D012B05D13F4B1B6C3E4A23F080530E
:1019E00013647B689B69002B6FD03A4B9B6803F0B4
:1019F0000C03082B67D07B689B69022B49D1354BC0
:101A00001B68344A23F080731360FFF70FFB3861C3
:101A100008E0FFF70BFB02463B69D31A022B01D902
:101A2000032353E02B4B1B6803F00073002BF0D112
:101A30007B68DA697B681B6A1A437B685B6A9B0177
:101A40001A437B689B6A5B08013B1B041A437B6853
:101A5000DB6A1B0613431F4A43F0005353601D4BC0
:101A60001B681C4A43F080731360FFF7DFFA38618C
:101A700008E0FFF7DBFA02463B69D31A022B01D9D3
:101A8000032323E0134B1B6803F00073002BF0D0FB
:101A90001BE0104B1B680F4A23F080731360FFF7A5
:101AA000C5FA386108E0FFF7C1FA02463B69D31A6C
:101AB000022B01D9032309E0064B1B6803F00073D6
:101AC000002BF0D101E0012300E000231846183775
:101AD000BD4680BD003802400070004080B584B033
:101AE00000AF786039600023FB607B68002B01D178
:101AF0000123CEE0694B1B6803F00F033A689A425A
:101B000010D9664B1B6823F00F0264493B681343EE
:101B10000B60624B1B6803F00F033A689A4201D0D6
:101B20000123B6E07B681B6803F00203002B20D082
:101B30007B681B6803F00403002B05D0584B9B689F
:101B4000574A43F4E05393607B681B6803F0080333
:101B5000002B05D0524B9B68514A43F4604393607D
:101B60004F4B9B6823F0F0027B689B684C49134302
:101B70008B607B681B6803F00103002B40D07B68FF
:101B80005B68012B07D1464B1B6803F40033002B25
:101B900015D101237DE07B685B68022B07D1404BA8
:101BA0001B6803F00073002B09D1012371E03C4B4B
:101BB0001B6803F00203002B01D1012369E0384BBD
:101BC0009B6823F003027B685B68354913438B6095
:101BD000FFF72CFAF8600AE0FFF728FA0246FB68E4
:101BE000D31A41F28832934201D9032351E02C4B9E
:101BF0009B6803F00C027B685B689B009A42EBD108
:101C0000264B1B6803F00F033A689A4210D2234B0D
:101C10001B6823F00F0221493B6813430B601F4BE5
:101C20001B6803F00F033A689A4201D0012330E0A9
:101C30007B681B6803F00403002B08D0184B9B68DB
:101C400023F4E0527B68DB68154913438B607B68A3
:101C50001B6803F00803002B09D0114B9B6823F489
:101C600060427B681B69DB000D4913438B6000F009
:101C70001DF801460A4B9B681B0903F00F03094A34
:101C8000D35C21FA03F3084A13600020FFF78AF9B6
:101C9000002318461037BD4680BD00BF003C0240FF
:101CA000003802407C79000808000020F0B585B0BB
:101CB00000AF00237B600023FB6000233B60002318
:101CC000BB60634B9B6803F00C03042B07D0082B0D
:101CD00008D0002B40F0B4805E4BBB60B3E05E4B9D
:101CE000BB60B0E05A4B5B6803F03F037B60584B2E
:101CF0005B6803F48003002B4AD0554B5B689B095B
:101D00004FF0000440F2FF114FF0000203EA01051A
:101D100004EA0206294632464FF000034FF0000461
:101D2000540144EAD1644B0119462246491B62EB37
:101D300006024FF000034FF00004940144EA91645E
:101D40008B015B1A64EB02044FF000014FF00002BC
:101D5000E20042EA5372D9000B4614465B1944EB89
:101D600006044FF000014FF00002620242EAD35233
:101D700059020B461446184621467B684FF0000472
:101D80001A462346FEF780FF03460C46FB6049E0F7
:101D90002F4B5B689B094FF0000440F2FF114FF09E
:101DA000000203EA010504EA0206294632464FF022
:101DB00000034FF00004540144EAD1644B0119467A
:101DC0002246491B62EB06024FF000034FF000046D
:101DD000940144EA91648B015B1A64EB02044FF0B6
:101DE00000014FF00002E20042EA5372D9000B46B4
:101DF00014465B1944EB06044FF000014FF000025B
:101E0000A20242EA935299020B4614461846214612
:101E10007B684FF000041A462346FEF735FF034661
:101E20000C46FB600A4B5B681B0C03F00303013399
:101E30005B003B60FA683B68B2FBF3F3BB6002E017
:101E4000044BBB6000BFBB6818461437BD46F0BDED
:101E5000003802400024F40000127A0080B400AF81
:101E6000034B1B681846BD465DF8047B704700BFF6
:101E70000800002080B500AFFFF7F0FF0146054BDA
:101E80009B689B0A03F00703034AD35C21FA03F320
:101E9000184680BD003802408C79000880B500AF3C
:101EA000FFF7DCFF0146054B9B685B0B03F0070364
:101EB000034AD35C21FA03F3184680BD0038024080
:101EC0008C79000880B588B000AF786000237B6112
:101ED00000233B610023FB600023FB610023BB6107
:101EE0007B681B6803F00103002B12D0694B9B68D1
:101EF000684A23F400039360664B9A687B685B6BC7
:101F0000644913438B607B685B6B002B01D1012319
:101F1000FB617B681B6803F40023002B17D05D4B2B
:101F2000D3F88C3023F440127B68DB6B59491343A0
:101F3000C1F88C307B68DB6BB3F5801F01D10123C6
:101F4000FB617B68DB6B002B01D10123BB617B68EC
:101F50001B6803F48013002B17D04E4BD3F88C3042
:101F600023F440027B681B6C4A491343C1F88C3050
:101F70007B681B6CB3F5800F01D10123FB617B688B
:101F80001B6C002B01D10123BB617B681B6803F034
:101F90008073002B01D00123FB617B681B6803F079
:101FA0002003002B00F08B803A4B1B6C394A43F026
:101FB00080531364374B1B6C03F08053BB60BB68CA
:101FC000354B1B68344A43F480731360FFF72EF8D7
:101FD000786108E0FFF72AF802467B69D31A642B80
:101FE00001D9032355E32C4B1B6803F48073002BAA
:101FF000F0D0284B1B6F03F440733B613B69002B0F
:1020000035D07B681B6B03F440733A699A422ED03B
:10201000204B1B6F23F440733B611E4B1B6F1D4A0B
:1020200043F4803313671B4B1B6F1A4A23F480332E
:102030001367184A3B691367164B1B6F03F00103C4
:10204000012B14D1FEF7F2FF78610AE0FEF7EEFFF4
:1020500002467B69D31A41F28832934201D90323A5
:1020600017E30C4B1B6F03F00203002BEED07B68D1
:102070001B6B03F44073B3F5407F11D1054B9B6894
:1020800023F4F8127B68196B044B0B40014913438E
:102090008B600BE00038024000700040FFFCFF0F37
:1020A000B04B9B68AF4A23F4F8139360AD4B1A6FA3
:1020B0007B681B6BC3F30B03AA4913430B677B6855
:1020C0001B6803F01003002B10D0A64BD3F88C3004
:1020D000A44A23F08073C2F88C30A24BD3F88C2032
:1020E0007B689B6B9F491343C1F88C307B681B68EE
:1020F00003F48043002B0AD09A4BD3F8903023F49A
:1021000040327B685B6E97491343C1F890307B681F
:102110001B6803F40043002B0AD0924BD3F8903095
:1021200023F440227B689B6E8E491343C1F89030A4
:102130007B681B6803F48033002B0AD0894BD3F8EB
:10214000903023F440127B68DB6E86491343C1F85C
:1021500090307B681B6803F40033002B0AD0814B5E
:10216000D3F8903023F440027B681B6F7D49134302
:10217000C1F890307B681B6803F04003002B0AD045
:10218000784BD3F8903023F003027B685B6C754981
:102190001343C1F890307B681B6803F08003002B69
:1021A0000AD0704BD3F8903023F00C027B689B6C04
:1021B0006C491343C1F890307B681B6803F480734B
:1021C000002B0AD0674BD3F8903023F030027B68A5
:1021D000DB6C64491343C1F890307B681B6803F4DF
:1021E0000073002B0AD05F4BD3F8903023F0C0026D
:1021F0007B681B6D5B491343C1F890307B681B689B
:1022000003F48063002B0AD0564BD3F8903023F4AC
:1022100040727B685B6D53491343C1F890307B6813
:102220001B6803F40063002B0AD04E4BD3F89030A8
:1022300023F440627B689B6D4A491343C1F8903098
:102240007B681B6803F48053002B0AD0454BD3F8FE
:10225000903023F440527B68DB6D42491343C1F850
:1022600090307B681B6803F40053002B0AD03D4B71
:10227000D3F8903023F440427B681B6E39491343F6
:10228000C1F890307B681B6803F48003002B0AD0F0
:10229000344BD3F8903023F080627B689B6F3149D8
:1022A0001343C1F890307B681B6803F40013002BC4
:1022B00011D02C4BD3F8903023F000627B68DB6F99
:1022C00028491343C1F890307B68DB6FB3F1006F8E
:1022D00001D10123BB617B681B6803F00803002B5D
:1022E00001D00123BB617B681B6803F48023002BB2
:1022F0000AD01C4BD3F8903023F040727B685B6FA0
:1023000018491343C1F890307B681B6803F400033D
:10231000002B0BD0134BD3F8903023F080527B6806
:10232000D3F880300F491343C1F89030FB69012B7B
:1023300005D07B681B68B3F1007F40F0D880094B63
:102340001B68084A23F080631360FEF76FFE786114
:102350000AE0FEF76BFE02467B69D31A642B03D9B1
:10236000032396E1003802406C4B1B6803F00063C6
:10237000002BEED17B681B6803F00103002B21D0FA
:102380007B685B6B002B1DD1644BD3F884301B0C36
:1023900003F003033B61614BD3F884301B0E03F061
:1023A0000F03FB607B685B689A013B691B041A435F
:1023B000FB681B061A437B689B681B07574913433E
:1023C000C1F884307B681B6803F40023002B04D021
:1023D0007B68DB6BB3F5801F0AD07B681B6803F456
:1023E0008013002B2ED07B681B6CB3F5800F29D196
:1023F0004A4BD3F884301B0C03F003033B61474B7B
:10240000D3F884301B0F03F00703FB607B685B6825
:102410009A013B691B041A437B68DB681B061A435D
:10242000FB681B073D491343C1F884303B4BD3F88D
:102430008C3023F01F027B685B6A013B37491343F2
:10244000C1F88C307B681B6803F08073002B1DD0B3
:10245000324BD3F884301B0E03F00F033B612F4B3C
:10246000D3F884301B0F03F00703FB607B685B68C5
:102470009A017B681B691B041A433B691B061A43BC
:10248000FB681B0725491343C1F884307B681B6830
:1024900003F00073002B11D07B685B689A017B68A6
:1024A0001B691B041A437B68DB681B061A437B68A5
:1024B0009B681B0719491343C1F88430174B1B68ED
:1024C000164A43F080631360FEF7B0FD786108E0C0
:1024D000FEF7ACFD02467B69D31A642B01D90323B6
:1024E000D7E00E4B1B6803F00063002BF0D0BB69F4
:1024F000012B40F0CD80094B1B68084A23F0805324
:102500001360FEF793FD78610AE0FEF78FFD024647
:102510007B69D31A642B03D90323BAE00038024045
:102520005E4B1B6803F00053B3F1005FEDD07B6896
:102530001B6803F40023002B03D07B68DB6B002BAC
:1025400009D07B681B6803F48013002B2ED07B68B6
:102550001B6C002B2AD1514BD3F888301B0C03F095
:1025600003033B614D4BD3F888301B0F03F0070387
:10257000FB607B685B699A013B691B041A437B68BB
:102580009B691B061A43FB681B0744491343C1F8A8
:102590008830424BD3F88C3023F4F8527B689B6A26
:1025A000013B1B023D491343C1F88C307B681B681B
:1025B00003F40013002B22D07B68DB6FB3F1006FB4
:1025C0001DD1364BD3F888301B0E03F00F033B614F
:1025D000324BD3F888301B0F03F00703FB607B6896
:1025E0005B699A017B681B6A1B041A433B691B06E3
:1025F0001A43FB681B0729491343C1F888307B68DD
:102600001B6803F00803002B28D0244BD3F8883034
:102610001B0E03F00F033B61204BD3F888301B0CDB
:1026200003F00303FB607B685B699A01FB681B0492
:102630001A433B691B061A437B68DB691B07174972
:102640001343C1F88830154BD3F88C3023F4403253
:102650007B68DB6A11491343C1F88C300F4B1B6850
:102660000E4A43F080531360FEF7E0FC786108E007
:10267000FEF7DCFC02467B69D31A642B01D90323E5
:1026800007E0064B1B6803F00053B3F1005FEFD186
:10269000002318462037BD4680BD00BF00380240E9
:1026A00080B584B000AF78607B68002B01D1012336
:1026B00084E07B6800229A627B6893F85D30DBB22D
:1026C000002B06D17B68002283F85C20786802F03A
:1026D00035FF7B68022283F85D207B681B681A68DF
:1026E0007B681B6822F040021A607B68DB68B3F5E8
:1026F000E06F02D90023FB6002E04FF48053FB60DF
:102700007B68DB68B3F5706F07D07B68DB68B3F577
:10271000E06F02D07B6800229A627B681B6B002B03
:102720000BD17B68DB68B3F5E06F03D97B680222CD
:102730001A6302E07B6801221A637B685A687B682F
:102740009B681A437B681B691A437B685B691A4361
:102750007B689B6903F400731A437B68DB691A4347
:102760007B681B6A42EA03017B689A6A7B681B6884
:102770000A431A607B689B691B0C03F004027B68A8
:102780005B6A1A437B685B6B1A437B68DB6842EACF
:1027900003017B681B68FA680A435A607B681B6800
:1027A000DA697B681B6822F40062DA617B680022C8
:1027B0001A667B68012283F85D20002318461037D3
:1027C000BD4680BD80B588B000AFF860B9603B60A1
:1027D0001346FB800023FB77FB6893F85C30012BEA
:1027E00001D1022350E1FB68012283F85C20FEF74F
:1027F0001DFCB861FB88FB82FB6893F85D30DBB29F
:10280000012B02D00223FB7735E1BB68002B02D0FD
:10281000FB88002B02D10123FB772CE1FB6803220C
:1028200083F85D20FB6800221A66FB68BA689A6329
:10283000FB68FA889A87FB68FA88DA87FB680022C7
:102840001A64FB680022A3F84420FB680022A3F866
:102850004620FB6800221A65FB680022DA64FB68E8
:102860009B68B3F5004F07D1FB681B681A68FB68CB
:102870001B6842F480421A60FB681B681B6803F007
:102880004003402B07D0FB681B681A68FB681B6875
:1028900042F040021A60FB68DB68B3F5E06F4BD989
:1028A000FB685B68002B02D0FB8A012B3ED1FB68E2
:1028B0009B6B1A88FB681B68DA60FB689B6B9A1C31
:1028C000FB689A63FB68DB8F9BB2013B9AB2FB68A3
:1028D000DA872BE0FB681B689B6803F00203022B7E
:1028E00012D1FB689B6B1A88FB681B68DA60FB6877
:1028F0009B6B9A1CFB689A63FB68DB8F9BB2013B66
:102900009AB2FB68DA8711E0FEF790FB0246BB69DA
:10291000D31A3A689A4203D83B68B3F1FF3F02D119
:102920003B68002B02D10323FB77A4E0FB68DB8F1D
:102930009BB2002BCED17CE0FB685B68002B02D001
:10294000FB8A012B70D1FB68DB8F9BB2012B12D964
:10295000FB689B6B1A88FB681B68DA60FB689B6BE3
:102960009A1CFB689A63FB68DB8F9BB2023B9AB2AE
:10297000FB68DA8758E0FB689A6BFB681B680C33CE
:1029800012781A70FB689B6B5A1CFB689A63FB6891
:10299000DB8F9BB2013B9AB2FB68DA8744E0FB68AD
:1029A0001B689B6803F00203022B2BD1FB68DB8FB3
:1029B0009BB2012B12D9FB689B6B1A88FB681B68C2
:1029C000DA60FB689B6B9A1CFB689A63FB68DB8F81
:1029D0009BB2023B9AB2FB68DA8725E0FB689A6BF0
:1029E000FB681B680C3312781A70FB689B6B5A1CCF
:1029F000FB689A63FB68DB8F9BB2013B9AB2FB6872
:102A0000DA8711E0FEF712FB0246BB69D31A3A6877
:102A10009A4203D83B68B3F1FF3F02D13B68002BD9
:102A200002D10323FB7726E0FB68DB8F9BB2002BF0
:102A3000B5D1BA693968F86800F014FB0346002B79
:102A400002D0FB6820221A66FB689B68002B0AD123
:102A500000233B61FB681B68DB683B61FB681B680C
:102A60009B683B613B69FB681B6E002B02D0012316
:102A7000FB7700E000BFFB68012283F85D20FB6864
:102A8000002283F85C20FB7F18462037BD4680BDBE
:102A900080B58AB000AFF860B9607A607B800123AE
:102AA0007B62002387F82330FB6893F85C30012BAE
:102AB00001D10223FBE1FB68012283F85C20FEF7D1
:102AC000B5FAF861FB6893F85D30FB76FB685B68EC
:102AD0007B617B887B827B883B82FB7E012B0ED0D7
:102AE0007B69B3F5827F06D1FB689B68002B02D11E
:102AF000FB7E042B03D0022387F82330CDE1BB6893
:102B0000002B05D07B68002B02D07B88002B03D1E3
:102B1000012387F82330C0E1FB6893F85D30DBB216
:102B2000042B03D0FB68052283F85D20FB6800229C
:102B30001A66FB687A681A64FB687A88A3F84620EC
:102B4000FB687A88A3F84420FB68BA689A63FB683C
:102B50007A88DA87FB687A889A87FB680022DA64C9
:102B6000FB6800221A65FB68DB68B3F5E06F02D8EA
:102B70003B8A012B08D9FB681B685A68FB681B68F5
:102B800022F480525A6007E0FB681B685A68FB68B1
:102B90001B6842F480525A60FB681B681B6803F094
:102BA0004003402B07D0FB681B681A68FB681B6852
:102BB00042F040021A60FB68DB68B3F5E06F7CD935
:102BC000FB685B68002B02D07B8A012B69D1FB6814
:102BD0009B6B1A88FB681B68DA60FB689B6B9A1C0E
:102BE000FB689A63FB68DB8F9BB2013B9AB2FB6880
:102BF000DA8756E0FB681B689B6803F00203022B30
:102C00001BD1FB68DB8F9BB2002B16D07B6A012B9C
:102C100013D1FB689B6B1A88FB681B68DA60FB6842
:102C20009B6B9A1CFB689A63FB68DB8F9BB2013B32
:102C30009AB2FB68DA8700237B62FB681B689B689B
:102C400003F00103012B1CD1FB68B3F846309BB2A3
:102C5000002B16D0FB681B68DA68FB681B6C92B20D
:102C60001A80FB681B6C9A1CFB681A64FB68B3F83B
:102C700046309BB2013B9AB2FB68A3F84620012381
:102C80007B62FEF7D3F90246FB69D31A3A6B9A428C
:102C900007D83B6BB3F1FF3F03D0032387F8233002
:102CA000FBE0FB68DB8F9BB2002BA3D1FB68B3F882
:102CB00046309BB2002B9DD1DFE0FB685B68002BA8
:102CC00003D07B8A012B40F0CB80FB68DB8F9BB26B
:102CD000012B12D9FB689B6B1A88FB681B68DA60B2
:102CE000FB689B6B9A1CFB689A63FB68DB8F9BB24B
:102CF000023B9AB2FB68DA87B2E0FB689A6BFB682A
:102D00001B680C3312781A70FB689B6B5A1CFB68AB
:102D10009A63FB68DB8F9BB2013B9AB2FB68DA8750
:102D20009EE0FB681B689B6803F00203022B34D112
:102D3000FB68DB8F9BB2002B2FD07B6A012B2CD141
:102D4000FB68DB8F9BB2012B12D9FB689B6B1A8847
:102D5000FB681B68DA60FB689B6B9A1CFB689A63D4
:102D6000FB68DB8F9BB2023B9AB2FB68DA8712E00A
:102D7000FB689A6BFB681B680C3312781A70FB684F
:102D80009B6B5A1CFB689A63FB68DB8F9BB2013B11
:102D90009AB2FB68DA8700237B62FB681B689B683A
:102DA00003F00103012B48D1FB68B3F846309BB216
:102DB000002B42D0FB68B3F846309BB2012B23D9DD
:102DC000FB681B68DA68FB681B6C92B21A80FB68B0
:102DD0001B6C9A1CFB681A64FB68B3F846309BB204
:102DE000023B9AB2FB68A3F84620FB68B3F8463072
:102DF0009BB2012B1FD8FB681B685A68FB681B68D5
:102E000042F480525A6016E0FB681B6803F10C0222
:102E1000FB681B6C1278D2B21A70FB681B6C5A1CD0
:102E2000FB681A64FB68B3F846309BB2013B9AB268
:102E3000FB68A3F8462001237B62FEF7F7F8024601
:102E4000FB69D31A3A6B9A4203D83B6BB3F1FF3F4D
:102E500002D13B6B002B03D1032387F823301CE006
:102E6000FB68DB8F9BB2002B7FF45BAFFB68B3F892
:102E700046309BB2002B7FF454AFFA69396BF86887
:102E800000F0F0F80346002B06D0012387F823302A
:102E9000FB6820221A6600E000BFFB68012283F86D
:102EA0005D20FB68002283F85C2097F823301846E9
:102EB0002837BD4680BD80B584B000AFF860B960EA
:102EC0003B601346FB714CE03B68B3F1FF3F48D0D9
:102ED000FEF7ACF80246BB69D31A3A689A4202D9A7
:102EE0003B68002B3DD1FB681B685A68FB681B6878
:102EF00022F0E0025A60FB685B68B3F5827F11D173
:102F0000FB689B68B3F5004F04D0FB689B68B3F582
:102F1000806F07D1FB681B681A68FB681B6822F08A
:102F200040021A60FB689B6AB3F5005F0FD1FB6833
:102F30001B681A68FB681B6822F400521A60FB6861
:102F40001B681A68FB681B6842F400521A60FB6831
:102F5000012283F85D20FB68002283F85C200323B4
:102F60000FE0FB681B689A68BB681340BA689A4216
:102F70000CBF01230023DBB21A46FB799A42A3D18E
:102F8000002318461037BD4680BD80B584B000AF21
:102F9000F860B9607A603B6057E0BB68B3F5C06F1A
:102FA00006D17B68002B03D1FB681B680C331B78B0
:102FB0003B68B3F1FF3F48D0FEF738F80246BB69E3
:102FC000D31A3A689A4202D93B68002B3DD1FB687C
:102FD0001B685A68FB681B6822F0E0025A60FB68B5
:102FE0005B68B3F5827F11D1FB689B68B3F5004F36
:102FF00004D0FB689B68B3F5806F07D1FB681B6842
:103000001A68FB681B6822F040021A60FB689B6A22
:10301000B3F5005F0FD1FB681B681A68FB681B687B
:1030200022F400521A60FB681B681A68FB681B6870
:1030300042F400521A60FB68012283F85D20FB68AD
:10304000002283F85C20032308E0FB681B689A6871
:10305000BB6813407A689A429FD100231846103704
:10306000BD4680BD80B586B002AFF860B9607A60B9
:103070007B680093BB6800224FF4C051F868FFF7EB
:1030800084FF0346002B07D0FB681B6E43F0200231
:10309000FB681A66032327E07B680093BB68002265
:1030A0008021F868FFF707FF0346002B07D0FB6875
:1030B0001B6E43F02002FB681A66032314E07B6852
:1030C0000093BB6800224FF4C061F868FFF75DFF12
:1030D0000346002B07D0FB681B6E43F02002FB6801
:1030E0001A66032300E0002318461037BD4680BD52
:1030F00080B582B000AF78607B68002B01D10123DE
:1031000040E07B685B6F002B06D17B68002283F870
:103110007020786802F03AFB7B6824225A677B684B
:103120001B681A687B681B6822F001021A607868C5
:1031300000F0BEF80346012B01D1012322E07B6899
:103140005B6A002B02D0786800F056FB7B681B6836
:103150005A687B681B6822F490425A607B681B683F
:103160009A687B681B6822F02A029A607B681B6859
:103170001A687B681B6842F001021A60786800F0E8
:10318000DDFB034618460837BD4680BD80B58AB0D2
:1031900002AFF860B9603B601346FB80FB685B6F71
:1031A000202B7FD1BB68002B02D0FB88002B01D1E4
:1031B000012378E0FB6893F87030012B01D10223E2
:1031C00071E0FB68012283F87020FB680022DA6757
:1031D000FB6821225A67FDF729FF7861FB68FA88AE
:1031E000A3F85020FB68FA88A3F85220FB689B687C
:1031F000B3F5805F08D1FB681B69002B04D1002365
:10320000FB61BB68BB6103E0BB68FB610023BB6182
:103210002CE03B6800937B6900228021F86800F075
:10322000BCFB0346002B01D003233CE0FB69002BD1
:103230000BD1BB691B881A46FB681B68C2F30802E6
:103240009A62BB690233BB6107E0FB691A78FB68CD
:103250001B689A62FB690133FB61FB68B3F852306B
:103260009BB2013B9AB2FB68A3F85220FB68B3F80B
:1032700052309BB2002BCCD13B6800937B6900227B
:103280004021F86800F089FB0346002B01D003239E
:1032900009E0FB6820225A67FB68002283F870204F
:1032A000002300E0022318462037BD4680BD000001
:1032B00080B588B000AF78600023BB610023FB7548
:1032C0007B689A687B681B691A437B685B691A4351
:1032D0007B68DB6913433B617B681B681A68B14BF1
:1032E00013407A68126839690B4313607B681B6866
:1032F0005B6823F440517B68DA687B681B680A438B
:103300005A607B689B693B617B681B6A3A6913431F
:103310003B617B681B689B6823F430617B681B689A
:103320003A690A439A607B681B689F4A934221D19D
:103330009E4BD3F8903003F00303032B16D801A261
:1033400052F823F055330008613300085B3300085E
:10335000673300080123FB7751E10223FB774EE13D
:103360000423FB774BE10823FB7748E11023FB772D
:1033700000BF44E17B681B688D4A934234D18B4B7C
:10338000D3F8903003F00C030C2B29D801A252F88B
:1033900023F000BFC9330008E1330008E13300081F
:1033A000E1330008D5330008E1330008E1330008B9
:1033B000E1330008CF330008E1330008E1330008AF
:1033C000E1330008DB3300080023FB7717E1022319
:1033D000FB7714E10423FB7711E10823FB770EE16F
:1033E0001023FB7700BF0AE17B681B68714A934298
:1033F00020D16E4BD3F8903003F03003102B0FD058
:10340000102B02D8002B05D010E0202B05D0302B3C
:1034100009D00BE00023FB77F1E00223FB77EEE01D
:103420000423FB77EBE00823FB77E8E01023FB772E
:1034300000BFE4E07B681B685F4A934220D15B4B8E
:10344000D3F8903003F0C003402B0FD0402B02D8AC
:10345000002B05D010E0802B05D0C02B09D00BE04D
:103460000023FB77CBE00223FB77C8E00423FB7744
:10347000C5E00823FB77C2E01023FB7700BFBEE066
:103480007B681B684D4A934224D1484BD3F8903057
:1034900003F44073B3F5807F12D0B3F5807F02D878
:1034A000002B07D012E0B3F5007F06D0B3F5407FC4
:1034B00009D00BE00023FB77A1E00223FB779EE01D
:1034C0000423FB779BE00823FB7798E01023FB772E
:1034D00000BF94E07B681B68394A934224D1334B88
:1034E000D3F8903003F44063B3F5806F12D0B3F596
:1034F000806F02D8002B07D012E0B3F5006F06D022
:10350000B3F5406F09D00BE00123FB7777E002238E
:10351000FB7774E00423FB7771E00823FB776EE010
:103520001023FB7700BF6AE07B681B68254A934243
:1035300024D11E4BD3F8903003F44053B3F5805F91
:1035400012D0B3F5805F02D8002B07D012E0B3F59C
:10355000005F06D0B3F5405F09D00BE00023FB7796
:103560004DE00223FB774AE00423FB7747E0082382
:10357000FB7744E01023FB7700BF40E07B681B68CB
:10358000114A934239D1094BD3F8903003F44043A8
:10359000B3F5804F27D0B3F5804F17D8002B1CD040
:1035A00027E000BFF369FFEF001001400038024040
:1035B0000044004000480040004C004000500040E3
:1035C0000014014000780040007C0040B3F5004F3B
:1035D00006D0B3F5404F09D00BE00023FB770EE097
:1035E0000223FB770BE00423FB7708E00823FB773B
:1035F00005E01023FB7700BF01E01023FB777B6819
:10360000DB69B3F5004F7CD1FB7F082B59D801A2B1
:1036100052F823F03936000857360008753600088E
:10362000C33600088D360008C3360008C3360008CC
:10363000C3360008AB360008FEF71CFC03465A00F0
:103640007B685B685B081A447B685B68B2FBF3F3DA
:103650009BB2BB6138E0FEF721FC03465A007B6851
:103660005B685B081A447B685B68B2FBF3F39BB250
:10367000BB6129E07B685B685A085D4B13447A683C
:103680005268B3FBF2F39BB2BB611DE0FEF70EFB89
:1036900003465A007B685B685B081A447B685B687A
:1036A000B2FBF3F39BB2BB610EE07B685B685B0827
:1036B00003F580327B685B68B2FBF3F39BB2BB61BE
:1036C00002E00123FB7500BFBB690F2B16D9BB6954
:1036D000B3F5803F12D2BB699BB223F00F03FB818D
:1036E000BB695B089BB203F007039AB2FB891343E3
:1036F000FB817B681B68FA89DA606EE00123FB7549
:103700006BE0FB7F082B57D801A252F823F000BFD3
:1037100035370008513700086D370008B937000801
:1037200085370008B9370008B9370008B9370008ED
:10373000A1370008FEF79EFB02467B685B685B08CA
:103740001A447B685B68B2FBF3F39BB2BB6136E063
:10375000FEF7A4FB02467B685B685B081A447B6843
:103760005B68B2FBF3F39BB2BB6128E07B685B68EC
:103770005A08204B13447A685268B3FBF2F39BB2A9
:10378000BB611CE0FEF792FA02467B685B685B084F
:103790001A447B685B68B2FBF3F39BB2BB610EE03B
:1037A0007B685B685B0803F500427B685B68B2FB83
:1037B000F3F39BB2BB6102E00123FB7500BFBB6961
:1037C0000F2B08D9BB69B3F5803F04D27B681B6817
:1037D000BA69DA6001E00123FB757B6800221A6692
:1037E0007B6800225A66FB7D18462037BD4680BDA7
:1037F0000048E8010024F40080B483B000AF786092
:103800007B685B6A03F00103002B0AD07B681B68AE
:103810005B6823F400317B689A6A7B681B680A4303
:103820005A607B685B6A03F00203002B0AD07B6856
:103830001B685B6823F480317B68DA6A7B681B68ED
:103840000A435A607B685B6A03F00403002B0AD0CA
:103850007B681B685B6823F480217B681A6B7B683C
:103860001B680A435A607B685B6A03F00803002BFD
:103870000AD07B681B685B6823F400417B685A6B45
:103880007B681B680A435A607B685B6A03F010031D
:10389000002B0AD07B681B689B6823F480517B68EF
:1038A0009A6B7B681B680A439A607B685B6A03F0CB
:1038B0002003002B0AD07B681B689B6823F400510F
:1038C0007B68DA6B7B681B680A439A607B685B6A7B
:1038D00003F04003002B1AD07B681B685B6823F45D
:1038E00080117B681A6C7B681B680A435A607B688E
:1038F0001B6CB3F5801F0AD17B681B685B6823F4DF
:10390000C0017B685A6C7B681B680A435A607B68FD
:103910005B6A03F08003002B0AD07B681B685B683E
:1039200023F400217B689A6C7B681B680A435A6009
:1039300000BF0C37BD465DF8047B704780B586B08C
:1039400002AF78607B680022DA67FDF76FFBF860F2
:103950007B681B681B6803F00803082B0ED16FF00F
:103960007E430093FB6800224FF40011786800F05A
:1039700014F80346002B01D003230AE07B682022C1
:103980005A677B6820229A677B68002283F8702040
:10399000002318461037BD4680BD80B584B000AF07
:1039A000F860B9603B601346FB712AE0BB69B3F174
:1039B000FF3F26D0FDF73AFB02463B68D31ABA69AF
:1039C0009A4202D3BB69002B1BD1FB681B681A68A3
:1039D000FB681B6822F4D0721A60FB681B689A6847
:1039E000FB681B6822F001029A60FB6820225A677C
:1039F000FB6820229A67FB68002283F8702003236B
:103A00000FE0FB681B68DA69BB681340BA689A422A
:103A10000CBF01230023DBB21A46FB799A42C5D0C2
:103A2000002318461037BD4680BD90B587B000AF63
:103A3000B9607B600346FB731346BB73786801F083
:103A400019F80346FB7597F91730002B1CD1BB689A
:103A5000002B19D07B689B78002B03D1FB7B63F094
:103A60007F03FB737B685C687B685878BB7B9BB289
:103A7000F97BBA68A0470346FB7597F91730002B0E
:103A800004D0FC23FB7501E0FF23FB7597F9173089
:103A900018461C37BD4690BD90B589B000AFF860A0
:103AA000B9603B601346FB71FB79042B01D90423F9
:103AB000FB71386800F0DEFF0346FB7797F91F3093
:103AC000002B4DD1FB68002B4AD0BB68002B47D0A0
:103AD000FB79002B41D0BB681B783B743B689B781B
:103AE000002B14D10023FB760DE0FB7EFA68134413
:103AF0001A78FB7EF9680B4402F07F02D2B21A708A
:103B0000FB7E0133FB76FA7EFB799A42EDD3FB799B
:103B1000012B0DD9FB7907F11001BA68F86800F0A4
:103B2000C9FFFB799BB25B009BB2013BBB8301E009
:103B3000FB79BB833B689C683B685878FB681978C5
:103B4000BB8B07F11002A0470346FB7797F91F30A4
:103B5000002B08D0FC23FB7705E0FD23FB7702E078
:103B6000FF23FB7700E000BF97F91F30184624378A
:103B7000BD4690BD80B584B000AF7860E023BB73D4
:103B8000B6237B73786800F075FF0346FB7397F9E3
:103B90000F30002B0DD107F10D0107F10E007B68EE
:103BA0000122FFF779FF0346FB737B68DB68022085
:103BB000984797F90F3018461037BD4680BD80B53D
:103BC00084B000AF78600523BB73786800F052FFC3
:103BD0000346FB7397F90F30002B50D12DE0796825
:103BE0007B680122D020FFF720FF0346FB7397F983
:103BF0000F30002B1AD17B681B78562B07D07B68BF
:103C00001B78572B03D07B681B78582B0ED1786814
:103C1000FFF7B0FF0346FB7397F90F30002B10D16D
:103C2000786800F072FF0346FB730AE07B68DB688C
:103C30000A209847BB7B013BBB73BB7B002BCED1DB
:103C400000E000BFBB7B002B01D1FE23FB7397F983
:103C50000F30002B13D17B68002283F82F207B6864
:103C6000002283F82D207B68002283F82C207B68BB
:103C7000002283F82E207B68002283F8302097F9F9
:103C80000F3018461037BD4680BD80B584B000AFF8
:103C90007860396000233B7300237B73386800F041
:103CA000E9FE0346FB7397F90F30002B37D17B6891
:103CB000002B34D007F10C013B680222F420FFF7FF
:103CC000B4FE0346FB7397F90F30002B29D13B7BE1
:103CD0005B09DAB27B681A703B7B9B10DBB203F0A6
:103CE0000703DAB27B685A707B7B5B09DAB27B68C8
:103CF0009A707B7B9B10DBB203F00703DAB27B6820
:103D0000DA707B7B03F00103DAB27B681A713B68DF
:103D10007A682C331068186012791A7101E0FF2359
:103D2000FB7397F90F3018461037BD4680BD80B53C
:103D300082B000AF786039603A687968002000F09E
:103D400081FF034618460837BD4680BD80B584B064
:103D500000AF03463960FB71386800F08BFE034604
:103D6000FB7397F90F30002B09D13B6803F12C014D
:103D7000FB793A68184600F065FF0346FB7397F934
:103D80000F3018461037BD4680BD80B584B000AFF7
:103D90007860396007F1080300221A609A80386859
:103DA00000F068FE0346FB7397F90F30002B33D108
:103DB0007B68002B30D007F108013B680622F72012
:103DC000FFF733FE0346FB7397F90F30002B20D12A
:103DD0003B7A1A037B7A1B011343BA7A1209D2B2D7
:103DE0001A437B685A60FB7A1A033B7B1B0113431F
:103DF0007A7B1209D2B21A437B681A607B681A6810
:103E00007B685B681946104600F0D6FF0346FB73DB
:103E100004E0F323FB7301E0FF23FB7397F90F30FA
:103E200018461037BD4680BD80B588B000AFF86039
:103E3000B9607A60786800F01DFE0346FB7797F959
:103E40001F30002B50D1BB68002B00DA0733DB108A
:103E50001A467B681B8A5B00D31A7A68B2F9122073
:103E600002FB03F3002B01DA03F2FF73DB12BB61E9
:103E7000BB68002B00DA0F331B111A467B681B8AC4
:103E8000D21ABB68002B00DA0F331B1119467B686E
:103E90001B8ACB1A03FB02F3002B01DA03F6FF7334
:103EA0001B131A467B68B3F9143003FB02F3002B93
:103EB00003DA43F6FF721A4413469B137B61BA6917
:103EC0007B691A447B689A627B689A6A13469B00F6
:103ED00013448033002B00DAFF331B121A46FB68B1
:103EE0001A600023FB7704E0FB6800221A60F223CB
:103EF000FB7797F91F3018462037BD4680BD00007C
:103F000080B588B000AFF860B9607A60786800F07A
:103F1000B1FD0346FB7797F91F30002B40F0E4809A
:103F20007B689B6A002B00DA01335B10A3F57A43B0
:103F3000BB61BB69002B00DA03339B101A46BB69D7
:103F4000002B00DA03339B1003FB02F3002B01DA92
:103F500003F2FF73DB121A467B68B3F9203003FBD0
:103F600002F37B617B68B3F91E301A46BB6903FB21
:103F700002F35B007A6913447B617B69002B00DAF2
:103F800003339B101A467B68B3F91C301B0413449F
:103F90007B617B68B3F91A301946BB69002B00DAE4
:103FA00003339B101A46BB69002B00DA03339B10C6
:103FB00003FB02F3002B03DA41F6FF721A441346A7
:103FC0005B1303FB01F3002B00DA0733DB101A4607
:103FD0007B68B3F918301946BB6903FB01F3002B6A
:103FE00000DA01335B101344002B02DA414A1A4411
:103FF00013469B14BB61BB6903F500437A68D28A00
:1040000002FB03F3002B03DA47F6FF721A44134650
:10401000DB13BB617B69002B01DA03F6FF731B1313
:104020005B421A46BB68D31A40F6354202FB03F2E4
:10403000314B1344FA681360BB69002B4FD0FB6807
:104040001B68002B08DBFB681B685A00BB69B2FBCE
:10405000F3F2FB681A6007E0FB681A68BB69B2FB01
:10406000F3F35A00FB681A607B68B3F926301946EF
:10407000FB681B68DB08FA681268D20802FB03F3CE
:104080005B0B03FB01F3002B01DA03F6FF731B1339
:10409000BB61FB681B689B081A467B68B3F9243038
:1040A00003FB02F3002B03DA41F6FF721A441346B6
:1040B0005B137B61FB681B681946BA697B69134413
:1040C0007A68B2F922201344002B00DA0F331B1157
:1040D0000B441A46FB681A600023FB7704E0FB6878
:1040E00000221A60F123FB7797F91F30184620371A
:1040F000BD4680BDFFFF0300000050C32DE9F0481E
:104100008CB000AFF860B9607A60786800F0B2FCFB
:10411000034687F82F3097F92F30002B40F0F781B6
:104120007B689B6A19464FEAE172B1F5FA3342F1B6
:10413000FF34C7E908347B6A3A6A02FB03F27B6A00
:10414000396A01FB03F31A44396A3B6AA1FB033461
:10415000224414467A68B2F9202011B24FEAE17283
:1041600001FB04F503FB02F02844A3FB0134021910
:104170001446C7E90634C7E906347B68B3F91E3034
:104180001BB24FEAE3743A6A04FB02F17A6A03FB5A
:1041900002F288183A6AA2FB031283181A464FF0FB
:1041A00000054FF00006560446EAD1364D04D7E923
:1041B00006126B1846EB0204C7E906347B68B3F9B4
:1041C0001C3019B24FEAE1724FF000054FF00006C3
:1041D000CE000025D7E906126B1846EB0204C7E9AA
:1041E00006347B6A3A6A02FB03F27B6A396A01FB96
:1041F00003F31A44396A3B6AA1FB03342244144690
:104200007A68B2F91A2011B24FEAE17201FB04F5A3
:1042100003FB02F02844A3FB013402191446002BCF
:1042200074F1000202DAFF3344F100044FF00001A0
:104230004FF00002190A41EA046122120D461646A7
:104240007B68B3F918301BB24FEAE3743A6A04FB97
:1042500002F17A6A03FB02F288183A6AA2FB03129F
:1042600083181A464FF0000B4FF0000C4FEA023C47
:104270004CEA115C4FEA013B1BEB05034CEB0604D7
:10428000C7E90834D7E90834191C44F500427B68B3
:10429000DB8A9BB24FF0000403FB02F501FB04F044
:1042A0002844A1FB033402191446002B74F10002C8
:1042B00003DA13F1FF3344F101044FF000014FF032
:1042C00000026110E217C7E90812D7E90834234356
:1042D00000F01781BB68C3F580134FF00004C7E9F5
:1042E0000434D7E904124FF000034FF00004D40760
:1042F00044EA5104CB07D7E906125B1A64EB0204C7
:104300001D462646AB46B4461BEB0B034CEB0C0498
:104310009B46A4461BEB050B4CEB060C4FF0000133
:104320004FF000024FEA8C1242EA9B624FEA8B1177
:104330001BEB010B4CEB020C4FF000014FF00002A5
:104340004FEA8C0242EA9B724FEA8B018B469446FD
:104350001BEB050B4CEB060C4FF000014FF000027D
:104360004FEA8C0242EA9B724FEA8B018B469446DD
:104370001BEB05004CEB0601D7E90823FCF734FCE6
:1043800003460C46C7E904347B68B3F926301DB2F6
:104390004FEAE576D7E90434002B74F1000206DA1F
:1043A00041F6FF714FF000025B1844EB02044FF03E
:1043B00000014FF00002590B41EAC44162130B4661
:1043C000144603FB06F105FB04F28818A5FB031253
:1043D00083181A46D7E90434002B74F1000006DA7A
:1043E00041F6FF754FF000065B1944EB06044FF0F1
:1043F00000054FF000065D0B45EAC44566132B46E9
:10440000344603FB02F501FB04F02844A1FB03340E
:1044100002191446002B74F1000206DA6FF07E4197
:104420004FF000025B1844EB02044FF000014FF024
:104430000002590E41EAC4116216C7E908127B68EE
:10444000B3F924301BB24FEAE3743A6904FB02F17A
:104450007A6903FB02F20A443969A1FB033422445E
:104460001446002B74F1000205DA2C494FF00002CB
:104470005B1844EB02044FF000014FF00002D90C2E
:1044800041EA4431E214C7E90612D7E90412D7E938
:104490000834CD1842EB0406D7E90634591944EB29
:1044A00006020B461446002B74F1000202DAFF33B9
:1044B00044F100044FF000014FF00002190A41EAF4
:1044C000046122120D4616467B68B3F9223019B2F8
:1044D0004FEAE1724FF0000B4FF0000C4FEA021C64
:1044E0004CEA117C4FEA011B1BEB05034CEB060465
:1044F000C7E904343A69FB681A60002387F82F3053
:1045000005E0FB6800221A60F02387F82F3097F946
:104510002F3018463037BD46BDE8F088FFFF070052
:104520002DE9B0438AB000AFF860B9607A6078686E
:1045300000F0A0FA034687F8273097F92730002BC0
:1045400040F0AC80B868FCF70DF84FF000025C4B0F
:10455000FCF79CF903460C4625461C467B681B8AE3
:104560001846FBF7EFFF4FF00002564BFCF78EF9B1
:1045700002460B4620462946FBF7A6FE03460C469C
:1045800025461C467B68B3F912301846FBF7EAFF54
:1045900002460B4620462946FCF74EF803460C46D9
:1045A000C7E90634B868FBF7DDFF4FF000024FF0B3
:1045B0008243FCF76BF903460C4625461C467B6894
:1045C0001B8A1846FBF7BEFF4FF000023E4BFCF77C
:1045D0005DF902460B4620462946FBF775FE034669
:1045E0000C4625461C46B868FBF7BCFF4FF000029E
:1045F0004FF08243FCF74AF902460B469046994633
:104600007B681B8A1846FBF79DFF4FF000022E4B7C
:10461000FCF73CF902460B4640464946FBF754FE80
:1046200002460B4620462946FCF706F803460C4690
:1046300025461C467B68B3F914301846FBF792FFF9
:1046400002460B4620462946FBF7F6FF03460C467A
:10465000C7E90434D7E90423D7E90601FBF736FE9E
:1046600003460C4618462146FCF796FA02467B683C
:104670009A62D7E90423D7E90601FBF727FE034630
:104680000C46184621464FF00002104BFCF7FEF88E
:1046900003460C46FA68C2E9003409E0FA684FF0B4
:1046A00000034FF00004C2E90034EF2387F82730FD
:1046B00097F9273018462837BD46BDE8B08300BFBC
:1046C0000000D040000090400000C0400000B44016
:1046D0002DE9B0438AB000AFF860B9607A607868BD
:1046E00000F0C8F9034687F8273097F92730002BE8
:1046F00040F0B8817B689B6A1846FBF733FF4FF0A8
:1047000000024FF08043FCF7C1F803460C46184600
:1047100021464FF00002C44BFBF7D6FD03460C4682
:10472000C7E90634D7E90623D7E90601FBF784FF7A
:1047300003460C4625461C467B68B3F920301846D4
:10474000FBF710FF02460B4620462946FBF774FF95
:1047500003460C46184621464FF00002B34BFCF7C7
:1047600095F803460C46C7E904347B68B3F91E305C
:104770001846FBF7F7FED7E90623FBF75DFF034674
:104780000C461846214602460B46FBF79FFD0346A2
:104790000C461A462346D7E90401FBF797FD03466A
:1047A0000C46C7E904344FF00002A14BD7E90401DD
:1047B000FCF76CF803460C4625461C467B68B3F9AB
:1047C0001C301846FBF7CEFE4FF00002994BFBF76A
:1047D00033FF02460B4620462946FBF777FD03468A
:1047E0000C46C7E904347B68B3F91A301846FBF766
:1047F000B9FED7E90623FBF71FFF03460C46184610
:104800002146D7E90623FBF717FF03460C46184657
:1048100021464FF00002884BFCF738F803460C465F
:1048200025461C467B68B3F918301846FBF79AFEFC
:10483000D7E90623FBF700FF02460B462046294630
:10484000FBF744FD03460C46184621464FF0000294
:10485000794BFCF71BF803460C46C7E906344FF0CA
:104860000002724BD7E90601FCF710F803460C462C
:10487000184621464FF00002704BFBF727FD034618
:104880000C4625461C467B68DB8A1846FBF75AFE19
:1048900002460B4620462946FBF7CEFE03460C4651
:1048A000C7E90634B868FBF74DFE03460C461A46C6
:1048B00023464FF000006249FBF706FD03460C4615
:1048C000FA68C2E900344FF000024FF00003D7E964
:1048D0000601FCF723F90346002B0BD14FF0000231
:1048E0004FF00003D7E90601FCF736F90346002B29
:1048F00000F0AE80FB68D3E900454FF00002514B59
:10490000D7E90401FBF7C2FF02460B4620462946C1
:10491000FBF7DAFC03460C461846214640A3D3E9D0
:104920000023FBF789FE03460C4618462146D7E9CB
:104930000623FBF7ABFF03460C46FA68C2E90034D6
:104940007B68B3F926301846FBF70CFEFB68D3E909
:1049500000341A462346FBF76FFE03460C46184602
:104960002146FB68D3E900341A462346FBF764FE70
:1049700003460C46184621464FF00002324BFBF727
:1049800085FF03460C46C7E90634FB68D3E90045BA
:104990007B68B3F924301846FBF7E4FD02460B466A
:1049A00020462946FBF748FE03460C46184621469A
:1049B0004FF000021D4BFBF769FF03460C46C7E9A9
:1049C0000434FB68D3E90045D7E90423D7E906019D
:1049D000FBF77CFC02460B46904699467B68B3F990
:1049E00022301846FBF7BEFD02460B4640464946BC
:1049F000FBF76CFC02460B46104619464FF00002CE
:104A0000124BFBF743FF02460B4620462946FBF7B5
:104A10005DFC03460C46FA68C2E9003422E000BFA0
:104A200000000000006AB8400040EF400000E04095
:104A3000000010400000F040000020410000F03F66
:104A4000000030410000B0400000E0410000304074
:104A5000FA684FF000034FF00004C2E90034EE237F
:104A600087F8273097F9273018462837BD46BDE824
:104A7000B08300BF80B485B000AF78607B68002B46
:104A80000BD07B685B68002B07D07B689B68002B92
:104A900003D07B68DB68002B02D1FF23FB7301E0AE
:104AA0000023FB7397F90F3018461437BD465DF8A5
:104AB000047B704780B487B000AFF860B9607A605B
:104AC000FB700123FB7516E0FB7DFA681A44FB7D41
:104AD0005B00013BB9680B4412781A70FB7D7A6861
:104AE0001A44FB7D5B001946BB680B4412781A70B0
:104AF000FB7D0133FB75FA7DFB789A42E4D300BF5E
:104B00001C37BD465DF8047B704780B58AB000AFA6
:104B1000786007F10C0300221A605A609A60DA602C
:104B20001A615A617868FFF7A5FF034687F82730B6
:104B300097F92730002B7FD107F10C017B681822F1
:104B40008820FEF772FF034687F8273097F9273051
:104B5000002B71D17B7B1B021AB23B7B1BB2134330
:104B60001BB29AB27B681A82FB7B1B021AB2BB7B18
:104B70001BB213431AB27B685A827B7C1B021AB2A7
:104B80003B7C1BB213431AB27B689A82FB7C1B02EC
:104B90001AB2BB7C1BB213431BB29AB27B68DA8297
:104BA0007B7D1B021AB23B7D1BB213431AB27B689A
:104BB0001A83FB7D1B021AB2BB7D1BB213431AB2D0
:104BC0007B685A837B7E1B021AB23B7E1BB2134367
:104BD0001AB27B689A83FB7E1B021AB2BB7E1BB2A1
:104BE00013431AB27B68DA837B7F1B021AB23B7FC6
:104BF0001BB213431AB27B681A84FB7F1B021AB2E2
:104C0000BB7F1BB213431AB27B685A8497F82130DA
:104C10001B021AB297F820301BB213431AB27B68FA
:104C20009A8497F823301B021AB297F822301BB2ED
:104C300013431AB27B68DA8497F92730184628376D
:104C4000BD4680BD80B586B000AF0346B9607A60CE
:104C5000FB7300233B7500237B75564B1B883B82FF
:104C60007868FFF707FF0346FB7597F91730002BAD
:104C700040F09580BB68002B00F0918007F1140193
:104C80007B680222F420FEF7D0FE0346FB7597F9FD
:104C90001730002B40F086807868FEF76BFF0346E4
:104CA000FB7597F91730002B7CD13B7D5BB203F08D
:104CB0001F035AB2BB681B785B015BB213435BB244
:104CC000DBB23B753B7D5BB223F01C035AB2BB6881
:104CD0005B789B005BB203F01C035BB213435BB2D7
:104CE000DBB23B757B7D5BB203F01F035AB2BB683E
:104CF0009B785B015BB213435BB2DBB27B757B7D60
:104D00005BB223F01C035AB2BB68DB789B005BB23A
:104D100003F01C035BB213435BB2DBB27B757B7D9C
:104D20005BB223F001035AB2BB681B795BB203F09C
:104D300001035BB213435BB2DBB27B7507F1140175
:104D400007F110007B680222FEF7A6FE0346FB7502
:104D500097F91730002B25D17B68BA682C3310687F
:104D6000186012791A71FB7B002B1BD03B7D5BB264
:104D700023F003035AB297F90F3003F003035BB239
:104D800013435BB2DBB23B7507F1140107F110006E
:104D90007B680122FEF780FE0346FB7502E0FF23DD
:104DA000FB7500E000BF97F9173018461837BD466D
:104DB00080BD00BF6079000880B485B000AF786026
:104DC00039600023FB737B68002B03DD7B68154A89
:104DD000934209DD3B68002B03DD3B68114A934297
:104DE00002DDF423FB7315E07B68002B03DD7B6899
:104DF0000C4A934202DDF623FB730BE03B68002B69
:104E000003DD3B68074A934202DDF523FB7301E0B3
:104E10000023FB7397F90F3018461437BD465DF831
:104E2000047B7047EFFF0F0080B58CB000AF3A6095
:104E30001A460346FB710B46BB711346BB80002329
:104E400087F82A300023FB62BB793B73002387F885
:104E50002B3011E097F82B303A681A4497F82B3032
:104E60000133127807F130010B4403F8242C97F832
:104E70002B30013387F82B3097F82B309BB2BA8850
:104E80009A42E7D8002210211348FCF78DFBBB881B
:104E900001339AB207F10C0164231048FDF792FC2C
:104EA000034687F82A3000BF0C4B93F85D30DBB225
:104EB000022BF9D0012210210748FCF775FB97F867
:104EC0002A30002B02D04FF0FF33FB62FB6A5BB24B
:104ED00018463037BD4680BD001002400802002051
:104EE00080B594B002AF3A601A460346FB710B4698
:104EF000BB711346BB80002387F8423000237B64DC
:104F000007F1240300221A605A609A60DA601A617D
:104F10005A619A6107F1080300221A605A609A6088
:104F2000DA601A615A619A61BB7987F824300022ED
:104F300010212548FCF738FBBB88013398B207F1F4
:104F4000080207F124010523009303461F48FDF7DB
:104F50009FFD034687F8423000BF1C4B93F85D303D
:104F6000DBB2022BF9D0012210211748FCF71CFB01
:104F70000520FCF767F8002387F8433011E097F825
:104F800043305A1C97F8433039680B4407F1480105
:104F90000A4412F8402C1A7097F84330013387F80E
:104FA000433097F843309BB2BA889A42E7D897F8D3
:104FB0004230002B02D04FF0FF337B647B6C5BB23E
:104FC00018464837BD4680BD001002400802002048
:104FD00080B58CB000AF07F11C0300221A605A6044
:104FE0009A60DA601A61864B1B6B854A43F01003A6
:104FF0001363834B1B6B03F01003BB61BB69804BD6
:105000001B6B7F4A43F0040313637D4B1B6B03F060
:1050100004037B617B697A4B1B6B794A43F0800305
:105020001363774B1B6B03F080033B613B69744B4D
:105030001B6B734A43F001031363714B1B6B03F04B
:105040000103FB60FB686E4B1B6B6D4A43F0020370
:1050500013636B4B1B6B03F00203BB60BB68684BB5
:105060001B6B674A43F008031363654B1B6B03F02C
:1050700008037B607B68624B1B6B614A43F0400313
:1050800013635F4B1B6B03F040033B603B680022E4
:1050900010215C48FCF788FA002244F281015A484A
:1050A000FCF782FA002240215848FCF77DFA1023D1
:1050B000FB6101233B6200237B620023BB6207F19B
:1050C0001C0319464F48FCF7C5F84FF40053FB6129
:1050D0004F4B3B6200237B6207F11C0319464D488E
:1050E000FCF7B8F83223FB6102233B6200237B62AA
:1050F0000323BB620B23FB6207F11C0319464548DF
:10510000FCF7A8F88623FB6102233B6200237B6245
:105110000323BB620B23FB6207F11C0319463E48C5
:10512000FCF798F844F28103FB6101233B62002302
:105130007B620023BB6207F11C0319463248FCF76F
:1051400089F84FF40053FB6102233B6200237B622A
:105150000323BB620B23FB6207F11C0319462A4899
:10516000FCF778F84023FB6101233B6200237B625C
:105170000023BB6207F11C0319462448FCF76AF8B8
:105180008023FB6100233B6200237B6207F11C0349
:1051900019461E48FCF75EF84FF4E853FB61022302
:1051A0003B6200237B620323BB620A23FB6207F19D
:1051B0001C0319461848FCF74DF84FF40073FB61C7
:1051C00000233B6200237B6207F11C03194612484F
:1051D000FCF740F84FF42053FB6102233B620023AD
:1051E0007B620323BB620B23FB6207F11C0319469E
:1051F0000648FCF72FF800BF3037BD4680BD00BF22
:105200000038024000100240000402400018024032
:1052100000001110000802400000024090B5ABB041
:1052200000AFFBF7B1FE00F0B7F8FFF7D1FE00F0DA
:105230007DFA00F045F9534B3B67002387F8653052
:10524000514BBB66514BFB66002387F8663007F174
:1052500064031846FEF7B3FC034687F8A73007F14E
:10526000640207F15C0311461846FEF70EFD034683
:1052700087F8A730012387F85F30032387F85C3075
:10528000032387F85D30052387F85E3007F1640259
:1052900007F15C0311461846FEF749FD034687F8FF
:1052A000A73007F1640319460320FEF74FFD0346BC
:1052B00087F8A73007F1640207F154031146184636
:1052C000FEF763FD034687F8A730796D07F16402A6
:1052D00007F150031846FEF7A7FD034687F8A730ED
:1052E000796D07F1640207F148031846FFF718F9D2
:1052F000034687F8A730B96D07F1640207F144034C
:105300001846FEF7FDFD034687F8A730B96D07F193
:10531000640207F140031846FEF7F0FE034687F8E3
:10532000A730B96D07F1640207F138031846FFF79B
:10533000CFF9034687F8A7303B6DC7F8A0307B6CE8
:10534000C7F89C30D7E91234381D1A462346104955
:1053500000F018FF0346A7F89A30B7F89A20391DD5
:105360004FF6FF730B48FDF711FFB7F89A203B1D6E
:105370000021184600F0A2FA3B6F4FF47A7098476C
:1053800098E700BF45100008E14E0008294E0008CC
:10539000647900086C02002080B5B4B000AF07F15A
:1053A000A00330220021184600F088FA07F18C0390
:1053B00000221A605A609A60DA601A6107F10803E5
:1053C00084220021184600F079FAFCF707F9364BE1
:1053D0001B6C354A43F080531364334B1B6C03F052
:1053E00080537B607B68314B1B6823F440432F4A1A
:1053F00043F4804313602D4B1B6803F440433B6030
:105400003B680123C7F8A0304FF4A023C7F8A430AD
:105410000223C7F8B8304FF48003C7F8BC30042328
:10542000C7F8C0304823C7F8C4300223C7F8C830D3
:105430000323C7F8CC3007F1A0031846FCF7DEF8C9
:105440000346002B01D000F033F80F23C7F88C304F
:105450000223C7F890300023C7F894304FF48053EC
:10546000C7F898300023C7F89C3007F18C0302215D
:105470001846FCF733FB0346002B01D000F018F868
:105480004FF48073BB6000237B6507F10803184667
:10549000FCF718FD0346002B01D000F009F800BF0F
:1054A000D037BD4680BD00BF0038024000700040CC
:1054B00080B400AF00BFBD465DF8047B70470000BC
:1054C00080B500AF1B4B1C4A1A601A4B4FF4827216
:1054D0005A60184B00229A60164B4FF4E062DA6073
:1054E000144B02221A61134B01225A61114B4FF4E3
:1054F00000729A610F4B1822DA610E4B00221A6279
:105500000C4B00225A620B4B00229A62094B072275
:10551000DA62084B00221A63064B00225A630548E0
:10552000FDF7BEF80346002B01D0FFF7C1FF00BF17
:1055300080BD00BF080200200034014080B58AB061
:1055400000AF786007F1140300221A605A609A6075
:10555000DA601A617B681B68174A934227D1174BA0
:105560005B6C164A43F400535364144B5B6C03F4B6
:1055700000533B613B69114B1B6B104A43F0100316
:1055800013630E4B1B6B03F01003FB60FB6864237B
:105590007B610223BB610023FB6103233B62052384
:1055A0007B6207F1140319460548FBF753FE00BF61
:1055B0002837BD4680BD00BF00340140003802409E
:1055C0000010024080B483B000AF0F4B1B6C0E4A3A
:1055D00043F0805313640C4B1B6C03F080537B60CF
:1055E0007B68094B5B6C084A43F480435364064B69
:1055F0005B6C03F480433B603B6800BF0C37BD46E7
:105600005DF8047B704700BF0038024080B400AFF3
:1056100000BFBD465DF8047B704780B400AFFEE775
:1056200080B400AFFEE780B400AFFEE780B400AF07
:10563000FEE780B400AF00BFBD465DF8047B704755
:1056400080B400AF00BFBD465DF8047B704780B4F6
:1056500000AF00BFBD465DF8047B704780B500AF6A
:10566000FBF7D0FC00BF80BD80B584B000AF786090
:10567000114B1B68002B02D10F4B104A1A600E4BC6
:105680001B68FB600C4B1A687B6813446A469342A4
:1056900007D900F0E9F802460C2313604FF0FF33FE
:1056A00006E0054B1A687B681344034A1360FB68E5
:1056B00018461037BD4680BDF8010020F0020020DA
:1056C00080B400AF154BD3F88830144A43F470030C
:1056D000C2F88830124B1B68114A43F00103136073
:1056E0000F4B00229A600E4B1A680D490D4B134068
:1056F0000B600B4B0C4A5A60094B1B68084A23F499
:1057000080231360064B0022DA60044B4FF00062E6
:105710009A6000BFBD465DF8047B704700ED00E075
:1057200000380240FFFFF6FE1030002480B500AFC5
:10573000144B154A1A60134B4FF416525A60114B12
:1057400000229A600F4B0022DA600E4B00221A6191
:105750000C4B0C225A610B4B00229A61094B002220
:10576000DA61084B00221A62064B00225A62054891
:10577000FDF7BEFC0346002B01D0FFF799FE00BFEA
:1057800080BD00BF6C0200200048004080B58AB098
:1057900000AF786007F1140300221A605A609A6023
:1057A000DA601A617B681B68174A934228D1174B4D
:1057B0001B6C164A43F480231364144B1B6C03F4D4
:1057C00080233B613B69114B1B6B104A43F008037C
:1057D00013630E4B1B6B03F00803FB60FB684FF475
:1057E00040737B610223BB610023FB6103233B62A7
:1057F00007237B6207F1140319460548FBF72AFDCE
:1058000000BF2837BD4680BD004800400038024038
:10581000000C0240DFF834D0002103E00C4B5B5851
:10582000435004310B480C4B42189A42F6D30B4AB2
:1058300002E0002342F8043B094B9A42F9D3FFF7F8
:105840003FFF00F017F8FFF7E9FC70470000052064
:10585000007C000800000020DC010020DC010020AA
:10586000F0020020FEE70000014B1868704700BFFF
:105870000C00002070B50D4E0D4CA41BA41000258B
:10588000A54209D10B4E0C4C02F05EF8A41BA410EB
:105890000025A54205D170BD56F825309847013541
:1058A000EEE756F8253098470135F2E7F87B000817
:1058B000F87B0008F87B0008FC7B000802440346E4
:1058C000934200D1704703F8011BF9E72DE9FF4728
:1058D00055EC104B0D9FDDF830A0002D0E46914683
:1058E0001946B8BF22462B4627F02007BBBF05F15B
:1058F00000431D4600232D23B8BF1446462F0B70CE
:1059000004D0452F00D10136022100E0032103AB72
:10591000019302AB00933246534645EC104B00F026
:10592000DFFC472F804602D119F0010F26D0462F09
:1059300008EB060911D198F80030302B0AD100226B
:10594000002320462946FBF7DFF818B9C6F1010607
:10595000CAF80060DAF8003099440022002320469B
:105960002946FBF7D1F838B93022039B4B4505D2C5
:10597000591C03911A70F8E7CDF80C90039B0E9A0E
:10598000A3EB08034046136004B0BDE8F087F7B509
:1059900000290446BABF49422D232B23092904F8C4
:1059A000022B437020DD0DF107031F460A2691FBF1
:1059B000F6F506FB15113031092D03F8011C03F132
:1059C000FF32294609DC3031023B02F8011CBB42A0
:1059D000224604D3101A03B0F0BD1346E7E713F8CC
:1059E000012B04F8012BF2E7302319448370021DC8
:1059F000C170EFE72DE9F04F8DB00C46DDF858800F
:105A000016461F46054601F023FA0368049318461C
:105A1000FAF7FEFB00230A93D8F80030059007330D
:105A200023F0070303F1080294F818A0D4F800B09B
:105A3000C8F80020D3E90023C4E91223D4E912896D
:105A400029F000430793CDF818804FF0FF32A74BA1
:105A5000DDE90601FBF78AF870BB4FF0FF32A34B7C
:105A6000DDE90601FBF764F830BB00220023404665
:105A70004946FBF753F810B12D2384F843309C4A74
:105A80009C4BBAF1470F8CBF9046984603232BF0EE
:105A90000402236122604FF00009009733460BAAED
:105AA0002146284600F0E6F9013040F08D804FF0A5
:105AB000FF300DB0BDE8F08F42464B4640464946A8
:105AC000FBF754F810B18C4A8C4BDAE761684B1C39
:105AD0004BF480620AA83ED1062363600023CDE91F
